{
  "_format": "hh-sol-artifact-1",
  "contractName": "Swapper",
  "sourceName": "contracts/Swapper.sol",
  "abi": [
    {
      "inputs": [],
      "stateMutability": "nonpayable",
      "type": "constructor"
    },
    {
      "inputs": [
        {
          "internalType": "address",
          "name": "_recipient",
          "type": "address"
        }
      ],
      "name": "convertExactEthToDai",
      "outputs": [],
      "stateMutability": "payable",
      "type": "function"
    },
    {
      "inputs": [],
      "name": "uniswapRouter",
      "outputs": [
        {
          "internalType": "contract IUniswapRouter",
          "name": "",
          "type": "address"
        }
      ],
      "stateMutability": "view",
      "type": "function"
    },
    {
      "stateMutability": "payable",
      "type": "receive"
    }
  ],
  "bytecode": "0x608060405234801561001057600080fd5b5061041a806100206000396000f3fe60806040526004361061002d5760003560e01c8063735de9f714610039578063882693d21461006457610034565b3661003457005b600080fd5b34801561004557600080fd5b5061004e610079565b60405161005b9190610309565b60405180910390f35b6100776100723660046102c0565b610091565b005b73e592427a0aece92de3edee1f18e0157c0586156481565b600034116100ba5760405162461bcd60e51b81526004016100b19061031d565b60405180910390fd5b604080516101008101825273d0a1e359811322d97991e03f863a0c30c2cf029c808252734f96fe3b7a6cf9725f59d353f723c1bdb64ca6aa60208301819052610bb88385018190526001600160a01b0386166060850152600f4201608085018190523460a08601819052600160c08701819052600060e08801819052975163414bf38960e01b815292979596949593948994929391929173e592427a0aece92de3edee1f18e0157c058615649063414bf38990869061017d90859060040161037b565b6020604051808303818588803b15801561019657600080fd5b505af11580156101aa573d6000803e3d6000fd5b50505050506040513d601f19601f820116820180604052508101906101cf91906102ee565b5073e592427a0aece92de3edee1f18e0157c058615646001600160a01b03166312210e8a6040518163ffffffff1660e01b8152600401600060405180830381600087803b15801561021f57600080fd5b505af1158015610233573d6000803e3d6000fd5b505050506000336001600160a01b03164760405161025090610306565b60006040518083038185875af1925050503d806000811461028d576040519150601f19603f3d011682016040523d82523d6000602084013e610292565b606091505b50509050806102b35760405162461bcd60e51b81526004016100b190610354565b5050505050505050505050565b6000602082840312156102d1578081fd5b81356001600160a01b03811681146102e7578182fd5b9392505050565b6000602082840312156102ff578081fd5b5051919050565b90565b6001600160a01b0391909116815260200190565b6020808252601a908201527f4d7573742070617373206e6f6e20302045544820616d6f756e74000000000000604082015260600190565b6020808252600d908201526c1c99599d5b990819985a5b1959609a1b604082015260600190565b81516001600160a01b03908116825260208084015182169083015260408084015162ffffff16908301526060808401518216908301526080808401519083015260a0838101519083015260c0808401519083015260e0928301511691810191909152610100019056fea264697066735822122032e0b67df6db257572f4809ae79de1d70d53e688723895b84149d2eb897c117264736f6c63430007060033",
  "linkReferences": {},
  "deployedLinkReferences": {}
}